EDI_DC40_U5100000000007353509750 3011  ZINVOIC05                                                   ZINVOIC05                                        SAPS01    LS  ZINVOIC5                                                                                             ZINVOIC5  LS  ZINVOIC5                                                                                             20170405134454                                                                                                                                    
ZE1EDISTDATA000               510000000000735350900000000000001TESSI                                                                 00001FACTMED                       002EDIPSA    00FR999 SK2021746617
ZE1EBANDEAU000                510000000000735350900000100000002T  1 * GEFCO SLOVAKIA                                                                                                                      
ZE1EBANDEAU000                510000000000735350900000200000002T  2 * s.r.o.                                                                                                                              
ZE1EBANDEAU000                510000000000735350900000300000002A  1 * Obchodný register Okresného súdu Bratislava I                                                                                       
ZE1EBANDEAU000                510000000000735350900000400000002A  2 * Oddiel: Sro, Vložka císlo: 32974/B                                                                                                  
ZE1EBANDEAU000                510000000000735350900000500000002A  3 * Plynárenská 1, 821 09 Bratislava                                                                                                    
ZE1EBANDEAU000                510000000000735350900000600000002A  4 * ICO: 35898526, DIC: 2021869267, IC DPH: SK2021869267                                                                                
ZE1EBANDEAU000                510000000000735350900000700000002A  5 * Sberbank,             BIC: LUBASKBX                                                                                                 
ZE1EBANDEAU000                510000000000735350900000800000002A  6 * IBAN EUR SK6931000000004040331013  (FOREIGN CUSTOMER)                                                                               
ZE1EBANDEAU000                510000000000735350900000900000002A  7 * CĺSLO ÚCTU: SK9131000000004040331005 (DOMESTIC CUSTOMER)                                                                            
ZE1EDGEFM000                  510000000000735350900001000000002ZFB2 08348500029293                              2016112911937000                   408608180 T1061 R103                                                                    ARCHIVAGE           1 Facturation mensuelles 11/2016               20161129  M 10 X                                                            S.R.O.                   530141              EURRCS BRATISLAVA 358 985 26                                                       22342J    PLYNÁRENSKÁ/1, 821 09 BRATISLAVA -SLOVAQUIE                                                                                                                                                                                 XBACS PLASTIQUES - P E834_8500029293.CSV                                                                                                                                                                 
ZE1EADSFM000                  510000000000735350900001100000002ICO : 35898526                     GEFCO SLOVAKIA S.R.O               GEFBOXSYSTEM - PLYNARENSKA 1                                                                                            821 09                                            BRATISLAVA                         SLOVAKIA                       SK2021869267        SK
ZE1EPARFM000                  510000000000735350900001200000002BP PCA SLOVAKIA, S.R.O.                                                  AUTOMOBILOVA ULICA 1                                                                                                    917 01                                            TRNAVA                             SLOVAKIA       SK2021746617                   SKSK2021746617        
ZE1EPARFM000                  510000000000735350900001300000002ZR PEUGEOT CITROËN S.A.                                                  C/O COMPTABILITE FOURNISSEURS                                                   TSA 10 003                              78091                                             YVELINES CEDEX 9                   FRANCE         SK2021746617                   FR                    
ZE1ECRITEREDETRI000           510000000000735350900001400000002N/A                                          
ZE1ECRITEREDERGT000           510000000000735350900001500001403000101                                                                                                                                    OTHER COSTS                                                                                      1.000 3172.11                                  3172.11        JDPCE         20.00 SB        20161129  Z4TA                                                                                                                                                      
ZE1EPTVAM000                  510000000000735350900001600000002JDZákladná sadzba 20% tuzemské služby               3172.11               20.00 
ZE1EFOOTM000                  5100000000007353509000017000000010.00               3172.11            20.00              634.42             0.00               0.00               0.00               0.00               0.00               0.00               3172.11            634.42             3806.53                                                                                                                                                                                                                                                                      OUR HEAD OFFICE                                                                                                                                                                                                                                           20170131.                                                                                                                                                                                                       EUR  .                   8500029293937000    
ZE1ELIBELLES000               51000000000073535090000180000000200010 No.                                                                                                                                
ZE1ELIBELLES000               51000000000073535090000190000000200008INVOICE                                                                                                                             
ZE1ELIBELLES000               51000000000073535090000200000000200003CERTIFIED TRUE COPY OF THE ORIGINAL DOCUMENT                                                                                        
ZE1ELIBELLES000               51000000000073535090000210000000200002CENTRE                                                                                                                              
ZE1ELIBELLES000               51000000000073535090000220000000200007BILLING ADDRESS                                                                                                                     
ZE1ELIBELLES000               51000000000073535090000230000000200001VAT NUMBER :                                                                                                                        
ZE1ELIBELLES000               51000000000073535090000240000000200004CUSTOMER                                                                                                                            
ZE1ELIBELLES000               51000000000073535090000250000000200012DOCUMENT DATE                                                                                                                       
ZE1ELIBELLES000               51000000000073535090000260000000200013MONTH                                                                                                                               
ZE1ELIBELLES000               51000000000073535090000270000000200014CUSTOMER CODE                                                                                                                       
ZE1ELIBELLES000               51000000000073535090000280000000200015ACT.                                                                                                                                
ZE1ELIBELLES000               51000000000073535090000290000000200016SUPPLIER REFERENCE                                                                                                                  
ZE1ELIBELLES000               51000000000073535090000300000000200017COD. I                                                                                                                              
ZE1ELIBELLES000               51000000000073535090000310000000200018PAGE                                                                                                                                
ZE1ELIBELLES000               51000000000073535090000320000000201004Quantity                                                                                                                            
ZE1ELIBELLES000               51000000000073535090000330000000201005Unit price                                                                                                                          
ZE1ELIBELLES000               51000000000073535090000340000000201006Amount before VAT                                                                                                                   
ZE1ELIBELLES000               51000000000073535090000350000000201007VAT                                                                                                                                 
ZE1ELIBELLES000               51000000000073535090000360000000202000AMOUNT EXEMPT FROM VAT                                                                                                              
ZE1ELIBELLES000               51000000000073535090000370000000202001TAXABLE AMOUNTS                                                                                                                     
ZE1ELIBELLES000               51000000000073535090000380000000202013TOTAL BEFORE VAT                                                                                                                    
ZE1ELIBELLES000               51000000000073535090000390000000202002VAT Rates                                                                                                                           
ZE1ELIBELLES000               51000000000073535090000400000000202003VAT AMOUNT                                                                                                                          
ZE1ELIBELLES000               51000000000073535090000410000000202014TOTAL VAT                                                                                                                           
ZE1ELIBELLES000               51000000000073535090000420000000202015TOTAL                                                                                                                               
ZE1ELIBELLES000               51000000000073535090000430000000202005REMITTANCE AND PAYMENT TO BE SENT TO                                                                                                
ZE1ELIBELLES000               51000000000073535090000440000000202007DOCUMENT NUMBER                                                                                                                     
ZE1ELIBELLES000               51000000000073535090000450000000202009AMOUNT                                                                                                                              
ZE1ELIBELLES000               51000000000073535090000460000000202010CUSTOMER CODE                                                                                                                       
ZE1ELIBELLES000               51000000000073535090000470000000202011DUE DATE                                                                                                                            
ZE1ELIBELLES000               51000000000073535090000480000000202017TOTAL TO PAY                                                                                                                        
ZE1ELIBELLES000               51000000000073535090000490000000201008B / FWD                                                                                                                             
ZE1ELIBELLES000               51000000000073535090000500000000201018C / FWD                                                                                                                             
ZE1ELIBELLES000               51000000000073535090000510000000200019Reference :                                                                                                                         
ZE1ELIBELLES000               51000000000073535090000520000000202016Disbursements                                                                                                                       
ZE1ELIBELLES000               51000000000073535090000530000000202027Deposit                                                                                                                             
ZE1ELIBELLES000               51000000000073535090000540000000202012FILE NUMBER                                                                                                                         
ZE1ELIBELLES000               51000000000073535090000550000000200005TAX NUMBER 2 :                                                                                                                      
ZE1ELIBELLES000               51000000000073535090000560000000201001Service                                                                                                                             
ZE1ELIBELLES000               51000000000073535090000570000000200021Tax date                                                                                                                            
ZE1ELIBELLES000               51000000000073535090000580000000200022Exchange rate date                                                                                                                  
ZE1ELIBELLES000               51000000000073535090000590000000202026CURRENCY                                                                                                                            
ZE1ELIBELLES000               51000000000073535090000600000000202029VAT                                                                                                                                 
ZE1ELIBELLES000               51000000000073535090000610000000202030TOTAL EXCL. VAT                                                                                                                     
ZE1ELIBELLES000               51000000000073535090000620000000202031VAT AMOUNTS                                                                                                                         
ZE1ELIBELLES000               51000000000073535090000630000000202032TOTAL INCL. VAT                                                                                                                     
ZE1ELIBELLES000               51000000000073535090000640000000202033TOTAL INVOICED                                                                                                                      
